{
  "contractName": "ContratoExemplo",
  "abi": [
    {
      "inputs": [],
      "name": "CampoVazio",
      "type": "error"
    },
    {
      "inputs": [],
      "name": "CpfJaCadastrado",
      "type": "error"
    },
    {
      "inputs": [],
      "name": "IdadeInvalida",
      "type": "error"
    },
    {
      "anonymous": false,
      "inputs": [
        {
          "indexed": false,
          "internalType": "string",
          "name": "cpf",
          "type": "string"
        },
        {
          "indexed": false,
          "internalType": "string",
          "name": "nome",
          "type": "string"
        }
      ],
      "name": "PacienteCadastrado",
      "type": "event"
    },
    {
      "inputs": [
        {
          "internalType": "string",
          "name": "_nome",
          "type": "string"
        },
        {
          "internalType": "string",
          "name": "_cpf",
          "type": "string"
        },
        {
          "internalType": "uint256",
          "name": "_idade",
          "type": "uint256"
        },
        {
          "internalType": "string",
          "name": "_endereco",
          "type": "string"
        }
      ],
      "name": "cadastrarPaciente",
      "outputs": [],
      "stateMutability": "nonpayable",
      "type": "function"
    },
    {
      "inputs": [
        {
          "internalType": "string",
          "name": "_cpf",
          "type": "string"
        }
      ],
      "name": "consultarPaciente",
      "outputs": [
        {
          "internalType": "string",
          "name": "nome",
          "type": "string"
        },
        {
          "internalType": "string",
          "name": "cpf",
          "type": "string"
        },
        {
          "internalType": "uint256",
          "name": "idade",
          "type": "uint256"
        },
        {
          "internalType": "string",
          "name": "endereco",
          "type": "string"
        },
        {
          "internalType": "bool",
          "name": "existe",
          "type": "bool"
        }
      ],
      "stateMutability": "view",
      "type": "function",
      "constant": true
    },
    {
      "inputs": [
        {
          "internalType": "string",
          "name": "_cpf",
          "type": "string"
        }
      ],
      "name": "pacienteExiste",
      "outputs": [
        {
          "internalType": "bool",
          "name": "",
          "type": "bool"
        }
      ],
      "stateMutability": "view",
      "type": "function",
      "constant": true
    }
  ],
  "bytecode": "0x608060405234801561001057600080fd5b50610cf3806100206000396000f3fe608060405234801561001057600080fd5b50600436106100415760003560e01c80633d5760691461004657806364c138211461007a578063838bb00614610096575b600080fd5b610060600480360381019061005b91906106ef565b6100c6565b6040516100719594939291906107eb565b60405180910390f35b610094600480360381019061008f919061087f565b610352565b005b6100b060048036038101906100ab91906106ef565b61055e565b6040516100bd919061093a565b60405180910390f35b606080600060606000806000876040516100e09190610991565b90815260200160405180910390206040518060a0016040529081600082018054610109906109d7565b80601f0160208091040260200160405190810160405280929190818152602001828054610135906109d7565b80156101825780601f1061015757610100808354040283529160200191610182565b820191906000526020600020905b81548152906001019060200180831161016557829003601f168201915b5050505050815260200160018201805461019b906109d7565b80601f01602080910402602001604051908101604052809291908181526020018280546101c7906109d7565b80156102145780601f106101e957610100808354040283529160200191610214565b820191906000526020600020905b8154815290600101906020018083116101f757829003601f168201915b5050505050815260200160028201548152602001600382018054610237906109d7565b80601f0160208091040260200160405190810160405280929190818152602001828054610263906109d7565b80156102b05780601f10610285576101008083540402835291602001916102b0565b820191906000526020600020905b81548152906001019060200180831161029357829003601f168201915b505050505081526020016004820160009054906101000a900460ff161515151581525050905080608001516103275760008060405180602001604052806000815250919060405180602001604052806000815250919060405180602001604052806000815250909550955095509550955050610349565b8060000151816020015182604001518360600151600195509550955095509550505b91939590929450565b600c821161038c576040517f69dbed1b00000000000000000000000000000000000000000000000000000000815260040160405180910390fd5b60008451036103c7576040517fddcec69e00000000000000000000000000000000000000000000000000000000815260040160405180910390fd5b600b835114610402576040517fddcec69e00000000000000000000000000000000000000000000000000000000815260040160405180910390fd5b6000836040516104129190610991565b908152602001604051809103902060040160009054906101000a900460ff1615610468576040517f7c44d07b00000000000000000000000000000000000000000000000000000000815260040160405180910390fd5b6040518060a00160405280858152602001848152602001838152602001828152602001600115158152506000846040516104a29190610991565b908152602001604051809103902060008201518160000190816104c59190610bb4565b5060208201518160010190816104db9190610bb4565b506040820151816002015560608201518160030190816104fb9190610bb4565b5060808201518160040160006101000a81548160ff0219169083151502179055509050507f48af18ae6fec3b990bbfe5a2e9c20c0b1d27fff5b81b3fedb4872cd421b48a4a8385604051610550929190610c86565b60405180910390a150505050565b6000808260405161056f9190610991565b908152602001604051809103902060040160009054906101000a900460ff169050919050565b6000604051905090565b600080fd5b600080fd5b600080fd5b600080fd5b6000601f19601f8301169050919050565b7f4e487b7100000000000000000000000000000000000000000000000000000000600052604160045260246000fd5b6105fc826105b3565b810181811067ffffffffffffffff8211171561061b5761061a6105c4565b5b80604052505050565b600061062e610595565b905061063a82826105f3565b919050565b600067ffffffffffffffff82111561065a576106596105c4565b5b610663826105b3565b9050602081019050919050565b82818337600083830152505050565b600061069261068d8461063f565b610624565b9050828152602081018484840111156106ae576106ad6105ae565b5b6106b9848285610670565b509392505050565b600082601f8301126106d6576106d56105a9565b5b81356106e684826020860161067f565b91505092915050565b6000602082840312156107055761070461059f565b5b600082013567ffffffffffffffff811115610723576107226105a4565b5b61072f848285016106c1565b91505092915050565b600081519050919050565b600082825260208201905092915050565b60005b83811015610772578082015181840152602081019050610757565b60008484015250505050565b600061078982610738565b6107938185610743565b93506107a3818560208601610754565b6107ac816105b3565b840191505092915050565b6000819050919050565b6107ca816107b7565b82525050565b60008115159050919050565b6107e5816107d0565b82525050565b600060a0820190508181036000830152610805818861077e565b90508181036020830152610819818761077e565b905061082860408301866107c1565b818103606083015261083a818561077e565b905061084960808301846107dc565b9695505050505050565b61085c816107b7565b811461086757600080fd5b50565b60008135905061087981610853565b92915050565b600080600080608085870312156108995761089861059f565b5b600085013567ffffffffffffffff8111156108b7576108b66105a4565b5b6108c3878288016106c1565b945050602085013567ffffffffffffffff8111156108e4576108e36105a4565b5b6108f0878288016106c1565b93505060406109018782880161086a565b925050606085013567ffffffffffffffff811115610922576109216105a4565b5b61092e878288016106c1565b91505092959194509250565b600060208201905061094f60008301846107dc565b92915050565b600081905092915050565b600061096b82610738565b6109758185610955565b9350610985818560208601610754565b80840191505092915050565b600061099d8284610960565b915081905092915050565b7f4e487b7100000000000000000000000000000000000000000000000000000000600052602260045260246000fd5b600060028204905060018216806109ef57607f821691505b602082108103610a0257610a016109a8565b5b50919050565b60008190508160005260206000209050919050565b60006020601f8301049050919050565b600082821b905092915050565b600060088302610a6a7fffffffffffffffffffffffffffffffffffffffffffffffffffffffffffffffff82610a2d565b610a748683610a2d565b95508019841693508086168417925050509392505050565b6000819050919050565b6000610ab1610aac610aa7846107b7565b610a8c565b6107b7565b9050919050565b6000819050919050565b610acb83610a96565b610adf610ad782610ab8565b848454610a3a565b825550505050565b600090565b610af4610ae7565b610aff818484610ac2565b505050565b5b81811015610b2357610b18600082610aec565b600181019050610b05565b5050565b601f821115610b6857610b3981610a08565b610b4284610a1d565b81016020851015610b51578190505b610b65610b5d85610a1d565b830182610b04565b50505b505050565b600082821c905092915050565b6000610b8b60001984600802610b6d565b1980831691505092915050565b6000610ba48383610b7a565b9150826002028217905092915050565b610bbd82610738565b67ffffffffffffffff811115610bd657610bd56105c4565b5b610be082546109d7565b610beb828285610b27565b600060209050601f831160018114610c1e5760008415610c0c578287015190505b610c168582610b98565b865550610c7e565b601f198416610c2c86610a08565b60005b82811015610c5457848901518255600182019150602085019450602081019050610c2f565b86831015610c715784890151610c6d601f891682610b7a565b8355505b6001600288020188555050505b505050505050565b60006040820190508181036000830152610ca0818561077e565b90508181036020830152610cb4818461077e565b9050939250505056fea2646970667358221220bf6e74ce0e9b9a80b3cd3fa802e6baafbe30c3194d92845d2a1233db1170094c64736f6c63430008130033",
  "immutableReferences": {},
  "source": "// SPDX-License-Identifier: MIT\r\npragma solidity 0.8.19;\r\n\r\ncontract ContratoExemplo {\r\n\r\n    struct Paciente {\r\n        string nome;\r\n        string cpf;\r\n        uint idade;\r\n        string endereco;\r\n        bool cadastrado;\r\n    }\r\n\r\n    mapping(string => Paciente) private pacientes;\r\n\r\n    event PacienteCadastrado(string cpf, string nome);\r\n\r\n    error IdadeInvalida();\r\n    error CampoVazio();\r\n    error CpfJaCadastrado();\r\n\r\n    function cadastrarPaciente(\r\n        string memory _nome,\r\n        string memory _cpf,\r\n        uint _idade,\r\n        string memory _endereco\r\n    ) public {\r\n        if (_idade <= 12) revert IdadeInvalida();\r\n        if (bytes(_nome).length == 0) revert CampoVazio();\r\n        if (bytes(_cpf).length != 11) revert CampoVazio();\r\n        if (pacientes[_cpf].cadastrado) revert CpfJaCadastrado();\r\n\r\n        pacientes[_cpf] = Paciente({\r\n            nome: _nome,\r\n            cpf: _cpf,\r\n            idade: _idade,\r\n            endereco: _endereco,\r\n            cadastrado: true\r\n        });\r\n\r\n        emit PacienteCadastrado(_cpf, _nome);\r\n    }\r\n\r\n    function consultarPaciente(string memory _cpf) public view returns (\r\n        string memory nome,\r\n        string memory cpf,\r\n        uint idade,\r\n        string memory endereco,\r\n        bool existe\r\n    ) {\r\n        Paciente memory p = pacientes[_cpf];\r\n        \r\n        if (!p.cadastrado) {\r\n            return (\"\", \"\", 0, \"\", false);\r\n        }\r\n\r\n        return (p.nome, p.cpf, p.idade, p.endereco, true);\r\n    }\r\n\r\n    function pacienteExiste(string memory _cpf) public view returns (bool) {\r\n        return pacientes[_cpf].cadastrado;\r\n    }\r\n}",
  "sourcePath": "c:\\Users\\Katia\\OneDrive\\Área de Trabalho\\Nova pasta\\blockchain - Copia\\blockchain\\contracts\\ContratoExemplo.sol",
  "compiler": {
    "name": "solc",
    "version": "0.8.19+commit.7dd6d404.Emscripten.clang"
  },
  "schemaVersion": "3.4.16",
  "updatedAt": "2026-06-30T16:38:25.998Z",
  "networkType": "ethereum",
  "devdoc": {
    "kind": "dev",
    "methods": {},
    "version": 1
  },
  "userdoc": {
    "kind": "user",
    "methods": {},
    "version": 1
  }
}